{
  "contractName": "Voting",
  "abi": [
    {
      "inputs": [],
      "payable": false,
      "stateMutability": "nonpayable",
      "type": "constructor"
    },
    {
      "anonymous": false,
      "inputs": [
        {
          "indexed": true,
          "internalType": "uint256",
          "name": "_candidateid",
          "type": "uint256"
        }
      ],
      "name": "eventVote",
      "type": "event"
    },
    {
      "constant": true,
      "inputs": [],
      "name": "candidatecount",
      "outputs": [
        {
          "internalType": "uint256",
          "name": "",
          "type": "uint256"
        }
      ],
      "payable": false,
      "stateMutability": "view",
      "type": "function"
    },
    {
      "constant": true,
      "inputs": [
        {
          "internalType": "uint256",
          "name": "",
          "type": "uint256"
        }
      ],
      "name": "candidates",
      "outputs": [
        {
          "internalType": "uint256",
          "name": "id",
          "type": "uint256"
        },
        {
          "internalType": "string",
          "name": "name",
          "type": "string"
        },
        {
          "internalType": "uint256",
          "name": "voteCount",
          "type": "uint256"
        }
      ],
      "payable": false,
      "stateMutability": "view",
      "type": "function"
    },
    {
      "constant": true,
      "inputs": [
        {
          "internalType": "address",
          "name": "",
          "type": "address"
        }
      ],
      "name": "voters",
      "outputs": [
        {
          "internalType": "bool",
          "name": "",
          "type": "bool"
        }
      ],
      "payable": false,
      "stateMutability": "view",
      "type": "function"
    },
    {
      "constant": false,
      "inputs": [
        {
          "internalType": "uint256",
          "name": "_candidateid",
          "type": "uint256"
        }
      ],
      "name": "vote",
      "outputs": [],
      "payable": false,
      "stateMutability": "nonpayable",
      "type": "function"
    }
  ],
  "bytecode": "0x608060405234801561001057600080fd5b506100556040518060400160405280600481526020017f52616a610000000000000000000000000000000000000000000000000000000081525061009e60201b60201c565b6100996040518060400160405280600481526020017f4e6568610000000000000000000000000000000000000000000000000000000081525061009e60201b60201c565b6101be565b6002600081548092919060010191905055506040518060600160405280600254815260200182815260200160008152506000806002548152602001908152602001600020600082015181600001556020820151816001019080519060200190610108929190610119565b506040820151816002015590505050565b828054600181600116156101000203166002900490600052602060002090601f016020900481019282601f1061015a57805160ff1916838001178555610188565b82800160010185558215610188579182015b8281111561018757825182559160200191906001019061016c565b5b5090506101959190610199565b5090565b6101bb91905b808211156101b757600081600090555060010161019f565b5090565b90565b6103e9806101cd6000396000f3fe608060405234801561001057600080fd5b506004361061004c5760003560e01c80630121b93f146100515780633477ee2e1461007f578063a3ec138d14610134578063c8b94d6914610190575b600080fd5b61007d6004803603602081101561006757600080fd5b81019080803590602001909291905050506101ae565b005b6100ab6004803603602081101561009557600080fd5b81019080803590602001909291905050506102cc565b6040518084815260200180602001838152602001828103825284818151815260200191508051906020019080838360005b838110156100f75780820151818401526020810190506100dc565b50505050905090810190601f1680156101245780820380516001836020036101000a031916815260200191505b5094505050505060405180910390f35b6101766004803603602081101561014a57600080fd5b81019080803573ffffffffffffffffffffffffffffffffffffffff16906020019092919050505061038e565b604051808215151515815260200191505060405180910390f35b6101986103ae565b6040518082815260200191505060405180910390f35b600160003373ffffffffffffffffffffffffffffffffffffffff1673ffffffffffffffffffffffffffffffffffffffff16815260200190815260200160002060009054906101000a900460ff161561020557600080fd5b60008111801561021757506002548111155b61022057600080fd5b60018060003373ffffffffffffffffffffffffffffffffffffffff1673ffffffffffffffffffffffffffffffffffffffff16815260200190815260200160002060006101000a81548160ff02191690831515021790555060008082815260200190815260200160002060020160008154809291906001019190505550807f5190cbcb11a5b819d29d510204755e1304f26705e78d63e90e9befa7c78c164b60405160405180910390a250565b6000602052806000526040600020600091509050806000015490806001018054600181600116156101000203166002900480601f01602080910402602001604051908101604052809291908181526020018280546001816001161561010002031660029004801561037e5780601f106103535761010080835404028352916020019161037e565b820191906000526020600020905b81548152906001019060200180831161036157829003601f168201915b5050505050908060020154905083565b60016020528060005260406000206000915054906101000a900460ff1681565b6002548156fea265627a7a7231582086f9496cd9d952b2e599aa59facffbfcd566696d9c931d6e0cc0b5fcc245d47c64736f6c63430005100032",
  "source": "pragma solidity ^0.5.0;\r\n\r\ncontract Voting {\r\n    \r\n    struct Candidate {\r\n        \r\n        uint id;\r\n        string name;\r\n        uint voteCount;\r\n    }\r\n    \r\n    mapping (uint => Candidate) public candidates;\r\n    mapping(address => bool) public voters;\r\n    \r\n    uint public candidatecount;\r\n    \r\n    event eventVote(uint indexed _candidateid);\r\n    \r\n    constructor () public {\r\n        addCandidate(\"Raja\");\r\n        addCandidate(\"Neha\");\r\n        \r\n    }\r\n    \r\n    function addCandidate (string memory _candidateName) private {\r\n        candidatecount++;\r\n        candidates[candidatecount] = Candidate(candidatecount,_candidateName,0);\r\n        \r\n    }\r\n    \r\n    function vote (uint _candidateid) public  {\r\n        \r\n        require(!voters[msg.sender]);\r\n        require(_candidateid>0 && _candidateid<=candidatecount);\r\n    \r\n        voters[msg.sender]=true;\r\n        candidates[_candidateid].voteCount++;\r\n        emit eventVote(_candidateid);\r\n    }\r\n}",
  "sourcePath": "C:\\Users\\om\\Desktop\\Personal\\Study\\Mission_2022\\Blockchain\\CodeExpert\\VotingDApp\\contracts\\Voting.sol",
  "compiler": {
    "name": "solc",
    "version": "0.5.16+commit.9c3226ce.Emscripten.clang"
  },
  "schemaVersion": "3.2.1",
  "updatedAt": "2020-07-09T14:46:14.634Z",
  "networkType": "ethereum",
  "devdoc": {
    "methods": {}
  },
  "userdoc": {
    "methods": {}
  }
}